{
  "_format": "hh-sol-artifact-1",
  "contractName": "MockToken",
  "sourceName": "contracts/MockToken.sol",
  "abi": [
    {
      "inputs": [],
      "stateMutability": "nonpayable",
      "type": "constructor"
    },
    {
      "anonymous": false,
      "inputs": [
        {
          "indexed": true,
          "internalType": "address",
          "name": "owner",
          "type": "address"
        },
        {
          "indexed": true,
          "internalType": "address",
          "name": "spender",
          "type": "address"
        },
        {
          "indexed": false,
          "internalType": "uint256",
          "name": "value",
          "type": "uint256"
        }
      ],
      "name": "Approval",
      "type": "event"
    },
    {
      "anonymous": false,
      "inputs": [
        {
          "indexed": true,
          "internalType": "address",
          "name": "from",
          "type": "address"
        },
        {
          "indexed": true,
          "internalType": "address",
          "name": "to",
          "type": "address"
        },
        {
          "indexed": false,
          "internalType": "uint256",
          "name": "value",
          "type": "uint256"
        }
      ],
      "name": "Transfer",
      "type": "event"
    },
    {
      "inputs": [
        {
          "internalType": "address",
          "name": "owner",
          "type": "address"
        },
        {
          "internalType": "address",
          "name": "spender",
          "type": "address"
        }
      ],
      "name": "allowance",
      "outputs": [
        {
          "internalType": "uint256",
          "name": "",
          "type": "uint256"
        }
      ],
      "stateMutability": "view",
      "type": "function"
    },
    {
      "inputs": [
        {
          "internalType": "address",
          "name": "spender",
          "type": "address"
        },
        {
          "internalType": "uint256",
          "name": "amount",
          "type": "uint256"
        }
      ],
      "name": "approve",
      "outputs": [
        {
          "internalType": "bool",
          "name": "",
          "type": "bool"
        }
      ],
      "stateMutability": "nonpayable",
      "type": "function"
    },
    {
      "inputs": [
        {
          "internalType": "address",
          "name": "account",
          "type": "address"
        }
      ],
      "name": "balanceOf",
      "outputs": [
        {
          "internalType": "uint256",
          "name": "",
          "type": "uint256"
        }
      ],
      "stateMutability": "view",
      "type": "function"
    },
    {
      "inputs": [],
      "name": "decimals",
      "outputs": [
        {
          "internalType": "uint8",
          "name": "",
          "type": "uint8"
        }
      ],
      "stateMutability": "view",
      "type": "function"
    },
    {
      "inputs": [
        {
          "internalType": "address",
          "name": "spender",
          "type": "address"
        },
        {
          "internalType": "uint256",
          "name": "subtractedValue",
          "type": "uint256"
        }
      ],
      "name": "decreaseAllowance",
      "outputs": [
        {
          "internalType": "bool",
          "name": "",
          "type": "bool"
        }
      ],
      "stateMutability": "nonpayable",
      "type": "function"
    },
    {
      "inputs": [
        {
          "internalType": "address",
          "name": "spender",
          "type": "address"
        },
        {
          "internalType": "uint256",
          "name": "addedValue",
          "type": "uint256"
        }
      ],
      "name": "increaseAllowance",
      "outputs": [
        {
          "internalType": "bool",
          "name": "",
          "type": "bool"
        }
      ],
      "stateMutability": "nonpayable",
      "type": "function"
    },
    {
      "inputs": [],
      "name": "mint",
      "outputs": [],
      "stateMutability": "nonpayable",
      "type": "function"
    },
    {
      "inputs": [],
      "name": "name",
      "outputs": [
        {
          "internalType": "string",
          "name": "",
          "type": "string"
        }
      ],
      "stateMutability": "view",
      "type": "function"
    },
    {
      "inputs": [],
      "name": "symbol",
      "outputs": [
        {
          "internalType": "string",
          "name": "",
          "type": "string"
        }
      ],
      "stateMutability": "view",
      "type": "function"
    },
    {
      "inputs": [],
      "name": "totalSupply",
      "outputs": [
        {
          "internalType": "uint256",
          "name": "",
          "type": "uint256"
        }
      ],
      "stateMutability": "view",
      "type": "function"
    },
    {
      "inputs": [
        {
          "internalType": "address",
          "name": "to",
          "type": "address"
        },
        {
          "internalType": "uint256",
          "name": "amount",
          "type": "uint256"
        }
      ],
      "name": "transfer",
      "outputs": [
        {
          "internalType": "bool",
          "name": "",
          "type": "bool"
        }
      ],
      "stateMutability": "nonpayable",
      "type": "function"
    },
    {
      "inputs": [
        {
          "internalType": "address",
          "name": "from",
          "type": "address"
        },
        {
          "internalType": "address",
          "name": "to",
          "type": "address"
        },
        {
          "internalType": "uint256",
          "name": "amount",
          "type": "uint256"
        }
      ],
      "name": "transferFrom",
      "outputs": [
        {
          "internalType": "bool",
          "name": "",
          "type": "bool"
        }
      ],
      "stateMutability": "nonpayable",
      "type": "function"
    }
  ],
  "bytecode": "0x608060405234801561001057600080fd5b50604080518082018252600981526836b7b1b5aa37b5b2b760b91b602080830191825283518085019094526002845261135560f21b90840152815191929161005a91600391610076565b50805161006e906004906020840190610076565b50505061014a565b8280546100829061010f565b90600052602060002090601f0160209004810192826100a457600085556100ea565b82601f106100bd57805160ff19168380011785556100ea565b828001600101855582156100ea579182015b828111156100ea5782518255916020019190600101906100cf565b506100f69291506100fa565b5090565b5b808211156100f657600081556001016100fb565b600181811c9082168061012357607f821691505b6020821081141561014457634e487b7160e01b600052602260045260246000fd5b50919050565b610989806101596000396000f3fe608060405234801561001057600080fd5b50600436106100b45760003560e01c80633950935111610071578063395093511461013857806370a082311461014b57806395d89b4114610174578063a457c2d71461017c578063a9059cbb1461018f578063dd62ed3e146101a257600080fd5b806306fdde03146100b9578063095ea7b3146100d75780631249c58b146100fa57806318160ddd1461010457806323b872dd14610116578063313ce56714610129575b600080fd5b6100c16101b5565b6040516100ce91906108a1565b60405180910390f35b6100ea6100e5366004610878565b610247565b60405190151581526020016100ce565b61010261025f565b005b6002545b6040519081526020016100ce565b6100ea61012436600461083d565b610275565b604051601281526020016100ce565b6100ea610146366004610878565b610299565b6101086101593660046107ea565b6001600160a01b031660009081526020819052604090205490565b6100c16102bb565b6100ea61018a366004610878565b6102ca565b6100ea61019d366004610878565b61034a565b6101086101b036600461080b565b610358565b6060600380546101c490610918565b80601f01602080910402602001604051908101604052809291908181526020018280546101f090610918565b801561023d5780601f106102125761010080835404028352916020019161023d565b820191906000526020600020905b81548152906001019060200180831161022057829003601f168201915b5050505050905090565b600033610255818585610383565b5060019392505050565b6102733369021e19e0c9bab24000006104a7565b565b600033610283858285610586565b61028e858585610600565b506001949350505050565b6000336102558185856102ac8383610358565b6102b691906108f4565b610383565b6060600480546101c490610918565b600033816102d88286610358565b90508381101561033d5760405162461bcd60e51b815260206004820152602560248201527f45524332303a2064656372656173656420616c6c6f77616e63652062656c6f77604482015264207a65726f60d81b60648201526084015b60405180910390fd5b61028e8286868403610383565b600033610255818585610600565b6001600160a01b03918216600090815260016020908152604080832093909416825291909152205490565b6001600160a01b0383166103e55760405162461bcd60e51b8152602060048201526024808201527f45524332303a20617070726f76652066726f6d20746865207a65726f206164646044820152637265737360e01b6064820152608401610334565b6001600160a01b0382166104465760405162461bcd60e51b815260206004820152602260248201527f45524332303a20617070726f766520746f20746865207a65726f206164647265604482015261737360f01b6064820152608401610334565b6001600160a01b0383811660008181526001602090815260408083209487168084529482529182902085905590518481527f8c5be1e5ebec7d5bd14f71427d1e84f3dd0314c0f7b2291e5b200ac8c7c3b925910160405180910390a3505050565b6001600160a01b0382166104fd5760405162461bcd60e51b815260206004820152601f60248201527f45524332303a206d696e7420746f20746865207a65726f2061646472657373006044820152606401610334565b806002600082825461050f91906108f4565b90915550506001600160a01b0382166000908152602081905260408120805483929061053c9084906108f4565b90915550506040518181526001600160a01b038316906000907fddf252ad1be2c89b69c2b068fc378daa952ba7f163c4a11628f55a4df523b3ef9060200160405180910390a35050565b60006105928484610358565b905060001981146105fa57818110156105ed5760405162461bcd60e51b815260206004820152601d60248201527f45524332303a20696e73756666696369656e7420616c6c6f77616e63650000006044820152606401610334565b6105fa8484848403610383565b50505050565b6001600160a01b0383166106645760405162461bcd60e51b815260206004820152602560248201527f45524332303a207472616e736665722066726f6d20746865207a65726f206164604482015264647265737360d81b6064820152608401610334565b6001600160a01b0382166106c65760405162461bcd60e51b815260206004820152602360248201527f45524332303a207472616e7366657220746f20746865207a65726f206164647260448201526265737360e81b6064820152608401610334565b6001600160a01b0383166000908152602081905260409020548181101561073e5760405162461bcd60e51b815260206004820152602660248201527f45524332303a207472616e7366657220616d6f756e7420657863656564732062604482015265616c616e636560d01b6064820152608401610334565b6001600160a01b038085166000908152602081905260408082208585039055918516815290812080548492906107759084906108f4565b92505081905550826001600160a01b0316846001600160a01b03167fddf252ad1be2c89b69c2b068fc378daa952ba7f163c4a11628f55a4df523b3ef846040516107c191815260200190565b60405180910390a36105fa565b80356001600160a01b03811681146107e557600080fd5b919050565b6000602082840312156107fb578081fd5b610804826107ce565b9392505050565b6000806040838503121561081d578081fd5b610826836107ce565b9150610834602084016107ce565b90509250929050565b600080600060608486031215610851578081fd5b61085a846107ce565b9250610868602085016107ce565b9150604084013590509250925092565b6000806040838503121561088a578182fd5b610893836107ce565b946020939093013593505050565b6000602080835283518082850152825b818110156108cd578581018301518582016040015282016108b1565b818111156108de5783604083870101525b50601f01601f1916929092016040019392505050565b6000821982111561091357634e487b7160e01b81526011600452602481fd5b500190565b600181811c9082168061092c57607f821691505b6020821081141561094d57634e487b7160e01b600052602260045260246000fd5b5091905056fea2646970667358221220b8dd3589099de084e424f60e3920a13c8e6fd199a36ac302031abb93aa5cb96d64736f6c63430008040033",
  "linkReferences": {},
  "deployedLinkReferences": {}
}